:0400000001EF01F01B
:08000800046ED8CF05F0E0CF33
:1000100006F00001E9CF0CF0EACF07F0E1CF08F0DD
:10002000E2CF09F0D9CF0AF0DACF0BF0F3CF12F01C
:10003000F4CF13F0FACF14F0F5CF15F0F6CF16F099
:10004000F7CF17F000C00EF001C00FF002C010F0A3
:1000500003C011F09DAA30EF00F09EBA5BEF00F0F4
:100060000EC000F00FC001F010C002F011C003F08C
:100070000CC0E9FF07C0EAFF078E08C0E1FF09C016
:10008000E2FF0AC0D9FF0BC0DAFF12C0F3FF13C0B2
:10009000F4FF14C0FAFF15C0F5FF16C0F6FF17C035
:1000A000F7FF045006C0E0FF05C0D8FF10009EA86F
:1000B000FED7AD6E120094948B8494928B829490B0
:1000C0008B901A901A921A941A961A989EAAFED792
:1000D000AECF23F09EAAFED7AECF24F09EAAFED7C5
:1000E000AECF25F09EAAFED7AECF26F023507308E0
:1000F00023E12450740820E125506F081DE12650AB
:1001000070081AE1939C8A9C93988A9893948A9495
:1001100093908A90939E8A9E939A8A9A93968A96AF
:1001200093928A921BC01CF01DC01EF01FC020F0CD
:1001300021C022F01A9A62D02350720813E1245091
:10014000650810E1255061080DE1265064080AE1B8
:100150001B50ADDF1D50ABDF1F50A9DF2150A7DFC3
:100160001A8A4CD0235067080CE12450720809E128
:100170002550610806E12650620803E11A8C1A9A9C
:100180003DD0235064080CE12450720809E1255049
:100190006F0806E12650700803E11A9C1A9A2ED0C7
:1001A00023506C080DE1245075080AE125507A08A7
:1001B00007E12650210804E195908C701A8A1ED020
:1001C0002350730812E1245074080FE125506E0883
:1001D0000CE12650640809E17F0E1C6E1E6E6E0E47
:1001E000206E7F0E226E1A9A09D01A9A23C01CF034
:1001F00024C01EF025C020F026C022F09E9A30EFC9
:1002000000F0F86AD09E078EEA6AE96AB886810E25
:10021000AF6E000EB06EA60EAC6E900EAB6E040EFE
:10022000196E1A901A921A941A961A981A8A1A9C87
:10023000C150C00B0F09C16E070EB46E9D8AC00E6F
:10024000F212C150C00B0B09C16EC050C00B0709A0
:10025000C06EC09EC280070E006E002EFED700D07A
:1002600000009288928A94948B9494928B929490AA
:100270008B8095948C9495968C9694988B98949A60
:100280008B9A939E8A9E939C8A9C939A8A9A93981F
:100290008A9893968A9693948A9493928A9293904A
:1002A0008A90959C8C9C959E8C9E95908C90000E2F
:1002B000016EC250C30B0110C26E070E006E002EFD
:1002C000FED700D00000C282C2B2FED7C4CF1CF05D
:1002D000070E006E002EFED700D00000040E016E47
:1002E000C250C30B0110C26E070E006E002EFED767
:1002F00000D00000C282C2B2FED7C4CF1EF0070EEB
:10030000006E002EFED700D00000080E016EC25015
:10031000C30B0110C26E070E006E002EFED700D078
:100320000000C282C2B2FED7C4CF20F0070E006E1A
:10033000002EFED700D000000C0E016EC250C30B81
:100340000110C26E070E006E002EFED700D0000016
:10035000C282C2B2FED7C4CF22F0070E006E002EBA
:10036000FED700D00000000E016EC250C30B01107A
:10037000C26E070E006E002EFED700D00000C282B3
:10038000C2B2FED7C4CF1BF0070E006E002EFED700
:1003900000D0000019501B5C1C5C05E319501B24A5
:1003A0001C5C11E010E395948C8419501B5C1C5C60
:1003B00005E2939E8A8E939C8A9C04D0939C8A8C9F
:1003C000939E8A9E08D095948C94939C8A9C939E2D
:1003D0008A9E1AA01A80040E016EC250C30B01102F
:1003E000C26E070E006E002EFED700D00000C28243
:1003F000C2B2FED7C4CF1DF0070E006E002EFED78E
:1004000000D0000019501D5C1E5C05E319501D242E
:100410001E5C11E010E395968C8619501D5C1E5CE5
:1004200005E2939A8A8A93988A9804D093988A8846
:10043000939A8A9A08D095968C9693988A98939ACC
:100440008A9A1AA21A82080E016EC250C30B0110BA
:10045000C26E070E006E002EFED700D00000C282D2
:10046000C2B2FED7C4CF1FF0070E006E002EFED71B
:1004700000D0000019501F5C205C05E319501F24B8
:10048000205C11E010E394988B8819501F5C205C6D
:1004900005E293968A8693948A9404D093948A84EE
:1004A00093968A9608D094988B9893948A9493966E
:1004B0008A961AA41A840C0E016EC250C30B011046
:1004C000C26E070E006E002EFED700D00000C28262
:1004D000C2B2FED7C4CF21F0070E006E002EFED7A9
:1004E00000D000001950215C225C05E31950212442
:1004F000225C11E010E3949A8B8A1950215C225CF3
:1005000005E293928A8293908A9004D093908A8095
:1005100093928A9208D0949A8B9A93908A9093920D
:100520008A921AA61A861AAC08D0928A80AA05D096
:10053000959C8C8C959E8C9E0FD01ABC08D092886E
:1005400080A805D0959E8C8E959C8C9C05D0959C02
:100550008C9C959E8C9E1A881AA013D01AA211D03A
:100560001AA40FD01AA60DD01AA80BD01ABA09D007
:100570004F0E9EA8FED7AD6E4B0E9EA8FED7AD6E59
:100580001A8A1ABA07D094948B9494928B8294907E
:100590008B8006D094948B8494928B9294908B80D1
:0405A000E2D603009C
:020000040030CA
:0E0000001CCC3E1E0087A1000FC00FE00F4079
:00000001FF
;PIC18F4550
;CRC=75BD  CREATED="16-nov-14 20:26"
